:100000000C9440000C945D000C945D000C945D0019
:100010000C945D000C945D000C945D000C945D00EC
:100020000C945D000C945D000C945D000C945D00DC
:100030000C945D000C945D000C945D000C945D00CC
:100040000C945D000C945D000C945D000C945D00BC
:100050000C945D000C945D000C945D000C945D00AC
:100060000C945D000C945D0084047205A905500693
:10007000A60744081E0A73098F09BB09D709030A9A
:1000800011241FBECFEFD8E0DEBFCDBF11E0A0E04E
:10009000B1E0E8EDF6E102C005900D92A238B1079B
:1000A000D9F723E0A2E8B1E001C01D92A838B20759
:1000B000E1F70E943D040C946A0B0C940000229A14
:1000C0009B01220F331F620F731F35B13B7F45B178
:1000D0004460AFB7F8946115710589F0FC01860F93
:1000E000971F219158E045B927FF35B9220F00002D
:1000F00000C035B95A95B9F7E817F90791F7AFBFBE
:1001000085E88A95F1F70000089560FF0AC096E03F
:10011000981B892F90E027E0629F800D911D11248C
:10012000089590E027E0629F800D911D11240895AD
:100130001F93CF93DF93C22FD32F142F0E948500DC
:10014000FC01EE0FFF1F8E0F9F1FFC01E55AFD4FB4
:100150001083D183C283DF91CF911F9108951F93A4
:10016000CF93DF93C22FD32F142F0E948500FC0161
:10017000EE0FFF1F8E0F9F1FFC01E051FD4F1083FC
:10018000D183C283DF91CF911F910895AF92BF9227
:10019000DF92EF92FF920F931F93CF93DF93109212
:1001A00089011092EF021092EE0280E090E061E08F
:1001B00070E0FF24F394C3E8D3E0A4E8B3E01F2D7C
:1001C000E12CFC01EE0FFF1FEC58FE4F9081E92F50
:1001D000E695E695E695F0E09F01220F331FE20FCA
:1001E000F31FB096218197705B0102C0AA0CBB1C63
:1001F0009A95E2F7C501822B8183E091EE02F0919E
:10020000EF02EE0FFF1FEC58FE4F9081E92FE695AD
:10021000E695E695F0E09F01220F331FE20FF31FF2
:10022000B09622819770AB0102C0440F551F9A957A
:10023000E2F7CA01822B82838FE99FE00197F1F7F1
:1002400000C0000010928B0110928A014091EE02D2
:100250005091EF02D42E80E090E09A01220F331FDC
:10026000220F331F220F331F241B350BFC01EE0F0F
:10027000FF1FEA59FE4F0081402F4695469546954F
:1002800050E0FA01EE0FFF1FE40FF51FE0A1402F31
:1002900047705B0102C0AA0CBB1C4A95E2F7A5019E
:1002A0004E23512F09F45E2D50939001F901E80F70
:1002B000F91FEE0FFF1FEE0FFF1FEE56FE4F40819E
:1002C000451779F0F901E80FF91FEE0FFF1FEE0F48
:1002D000FF1FEE56FE4FF18210938901D8828C9356
:1002E0000AC0820F931FFC01EE0FFF1FEE0FFF1FCE
:1002F000EE56FE4F118280918A0190918B01F90197
:10030000E80FF91FEE0FFF1FEE0FFF1FEE56FE4F17
:10031000409190014083019690938B0180938A01D4
:10032000873091050CF4A2CFE091EE02F091EF023C
:10033000EE0FFF1FEC58FE4F8081E82FE695E69503
:10034000E695F0E09F01220F331FE20FF31FB096F6
:1003500022818770AB0102C0440F551F8A95E2F7D6
:10036000CA018095822382838FE99FE00197F1F78C
:1003700000C00000E091EE02F091EF02EE0FFF1FCF
:10038000EC58FE4F8081E82FE695E695E695F0E083
:100390009F01220F331FE20FF31FB0962181877058
:1003A0005B0102C0AA0CBB1C8A95E2F7C5018095CF
:1003B000822381838FE99FE00197F1F700C000005D
:1003C0008091EE029091EF0201969093EF0280935C
:1003D000EE02873091050CF4F4CEDF91CF911F919E
:1003E0000F91FF90EF90DF90BF90AF900895109223
:1003F0005702109256021092EF021092EE021092E3
:100400008B0110928A0160E070E08091EE02909181
:10041000EF02FC01EE0FFF1FEE0FFF1FEE0FFF1F9D
:10042000E81BF90BE60FF71FEE0FFF1FEE0FFF1F84
:10043000EE56FE4F2081222371F02091560230911A
:1004400057022170332731952195310940E050E062
:100450000E94AF0005C020E030E0A9010E94AF007B
:1004600060918A0170918B016F5F7F4F70938B0158
:1004700060938A016730710544F28091EE02909199
:10048000EF0201969093EF028093EE0207970CF42F
:10049000B6CF2FE78AE196E0215080409040E1F707
:1004A00000C0000061E370E080EF92E00E945F0016
:1004B0008091560290915702019690935702809333
:1004C00056020A970CF497CF08950F931F93CF937A
:1004D000DF931092EF021092EE0200E0CEEED2E037
:1004E00016E010928B0110928A01602F80915A02BF
:1004F000882311F0888104C08881212F281B822F36
:1005000020E030E040EA50E00E94AF0060918A01B4
:1005100070918B016F5F7F4F70938B0160938A01A5
:10052000673071051CF361E370E080EF92E00E9498
:100530005F008FEB94ED21E0815090402040E1F787
:1005400000C0000010928B0110928A01602F8091F0
:100550005A02882311F0888104C08881912F981B4A
:10056000892F20E030E0A9010E94AF0060918A014C
:1005700070918B016F5F7F4F70938B0160938A0145
:100580006730710524F38091EE029091EF0201969D
:100590009093EF028093EE0207970CF4A2CF909114
:1005A0005A0281E0892780935A02DF91CF911F91EF
:1005B0000F9108953F924F925F926F927F928F9228
:1005C0009F92AF92BF92CF92DF92EF92FF920F93E2
:1005D0001F93CF93DF930F2EF2E9CF2EF1E0DF2EA2
:1005E000F02DA0E0B0E0C0E0D0E060E070E040E0DE
:1005F00050E090E0512C412C612C332433946894CA
:10060000772471F8F601252D342D8A2E9B2E8081BA
:10061000882309F480C04F5F5F4F4130510509F4D2
:100620006BC04230510549F56A177B0709F48CC04D
:10063000C217D30709F48AC0CB018A1B9B0B8C011C
:1006400022F400271127081B190B7E01E21AF30A76
:10065000C701992324F4882799278E199F09081721
:10066000190709F475C030938B0120938A01B09368
:10067000EF02A093EE0280E06DC0913021F080F097
:100680009230D9F03CC0C217D307C9F130938B0127
:1006900020938A01B093EF02A093EE0280E05AC04B
:1006A0006A177B0761F130938B0120938A01B09325
:1006B000EF02A093EE0280E04DC08B010A1B1B0BE2
:1006C000780122F4EE24FF24E01AF10A5E01A21A56
:1006D000B30A850122F4002711270A191B09E01625
:1006E000F10669F030938B0120938A01B093EF02F9
:1006F000A093EE0280E02EC0E901682D792D4730ED
:10070000510549F430938B0120938A01B093EF0295
:10071000A093EE021FC02F5F3F4F34962730310564
:1007200009F075CF11968CE1C80ED11CA730B10528
:1007300009F068CF30938B0120938A01B093EF02C8
:10074000A093EE0280E006C0962DE5CF932DE3CF77
:10075000972DE1CFDF91CF911F910F91FF90EF90F7
:10076000DF90CF90BF90AF909F908F907F906F90D1
:100770005F904F903F9008952FEF30E040E050E0C1
:1007800060E080E00E94980061E370E08BE592E019
:100790000E945F002FEF82E597E02150804090405B
:1007A000E1F700C0000020E030E04FEF50E060E0F3
:1007B00080E00E94980061E370E08BE592E00E9487
:1007C0005F002FEF82E597E0215080409040E1F7F5
:1007D00000C00000D1CF1092EF021092EE021092F2
:1007E0008B0110928A0160E070E08091EE0290919E
:1007F000EF02FC01EE0FFF1FEE0FFF1FEE0FFF1FBA
:10080000E81BF90BE60FF71FEE0FFF1FEC5FFE4F23
:1008100020813181232B39F020E030E840E850E09E
:100820000E94980005C020E030E0A9010E949800D5
:1008300060918A0170918B016F5F7F4F70938B0184
:1008400060938A016730710584F28091EE02909185
:10085000EF0201969093EF028093EE0207970CF45B
:10086000BECF61E370E08BE592E00E945F000895E7
:100870000E94EB031092860108950E947A0A0E945A
:10088000EB03279820E030E04FEF50E060E080E09D
:100890000E94980061E370E08BE592E00E945F00A7
:1008A0002FEF82E597E0215080409040E1F700C0B3
:1008B000000020E030E0A90160E080E00E949800A4
:1008C00061E370E08BE592E00E945F0003E813E0D3
:1008D0000F2EFCE8CF2EF1E0DF2EF02DC4E8D3E0A0
:1008E0000F2EFAE8EF2EF1E0FF2EF02D0E94C60049
:1008F0008091860190E08C30910508F09FC5FC0145
:10090000EC5CFF4F0C948F0A1092850110928401C9
:1009100010928301109282011092EF021092EE0267
:1009200010928B0110928A0160E070E08091EE02DB
:100930009091EF02FC01EE0FFF1FEE0FFF1FEE0F75
:10094000FF1FE81BF90BE60FF71FEE0FFF1FEC5F11
:10095000FE4F20813181232B51F1FC01EE0FFF1F4F
:10096000EE0FFF1FEE0FFF1FE81BF90BE60FF71F3F
:10097000EE0FFF1FEE0FFF1FEE56FE4F20812223CA
:1009800079F020E830E0A9010E949800809184016C
:10099000909185010196909385018093840130C0E8
:1009A00020E030E840E850E00E94980029C0FC01B7
:1009B000EE0FFF1FEE0FFF1FEE0FFF1FE81BF90BDF
:1009C000E60FF71FEE0FFF1FEE0FFF1FEE56FE4F55
:1009D0002081222381F020E030E040EA50E00E94B4
:1009E00098008091820190918301019690938301F8
:1009F0008093820105C020E030E0A9010E949800A8
:100A000060918A0170918B016F5F7F4F70938B01B2
:100A100060938A01673071050CF488CF8091EE02F3
:100A20009091EF0201969093EF028093EE02079768
:100A30000CF476CF8091840190918501079709F09D
:100A4000FDC48091820190918301892B09F0F6C445
:100A50001092EF021092EE0210928B0110928A0116
:100A600060E070E08091EE029091EF02FC01EE0FE9
:100A7000FF1FEE0FFF1FEE0FFF1FE81BF90BE60F26
:100A8000F71FEE0FFF1FEC5FFE4F20813181232BFC
:100A900031F02FEF3FEF40E050E00E94980060916E
:100AA0008A0170918B016F5F7F4F70938B01609310
:100AB0008A0167307105B4F28091EE029091EF02E5
:100AC00001969093EF028093EE0207972CF20E941A
:100AD000F70A817080935A020E94650281E0809338
:100AE0008601ACC480918901882321F00E94EB0328
:100AF000109286011F9BA2C40E94F7010E94F70A70
:100B00009C01992324F488279927821B930B69E978
:100B100079E10E947B0A81E0860F809387010E9421
:100B2000F70A99231CF491958195910969E979E176
:100B30000E947B0A81E0860F809388019091870153
:100B4000891303C00E94650279C482E08093860104
:100B500075C480918901882309F470C4D8018C91EF
:100B60008093580268816093590220E030E0A90127
:100B70000E9498001092EF021092EE0244244394D7
:100B80000F2EFEEE8F2EF2E09F2EF02DAA24AA94B7
:100B9000BA2C742C10928B0110928A0155245A940D
:100BA000612CB0925702A0925602852DE091EE0280
:100BB000F091EF02E957FE4FD7013C912081329F1F
:100BC000302D1124F8019081389F900D11249093BD
:100BD0008F01829F802D1124472D20918A01309111
:100BE0008B01232B09F0462D6881849F600D112411
:100BF0006093870327E0929FF0011124E60FF11D17
:100C0000EE0FFF1FEE0FFF1FEE56FE4F808181118A
:100C10001EC09730E0F46730D0F420E830E0A9013E
:100C2000892F0E949800E0918F018091870397E0BF
:100C3000E99FF0011124E80FF11DEE0FFF1FEE0FE9
:100C4000FF1FEE56FE4F4282D4018C918383809128
:100C50005602909157020296909357028093560243
:100C6000823091050CF4A2CF80918A0190918B0182
:100C7000019690938B0180938A0102970CF491CF97
:100C80008091EE029091EF0201969093EF02809393
:100C9000EE0202970CF47ECF83E080938601CEC3F0
:100CA00080918901882309F4C9C3F8018081688192
:100CB000462F50E0282F30E0FA0197E0899FE00DA1
:100CC000F11D1124EE0FFF1FEE0FFF1FEE56FE4F1A
:100CD000908191110EC0D6018C9360938D0120E01C
:100CE00030E040EA50E00E94980088E0809386015E
:100CF000A5C3909158028913B6C390915902691304
:100D000069C01092EF021092EE0210928B011092C5
:100D10008A0160E070E08091EE029091EF02DC01C8
:100D2000AA0FBB1FAA0FBB1FAA0FBB1FA81BB90B83
:100D3000A60FB71FAA0FBB1FAA0FBB1FAE56BE4FF1
:100D400012962C912223F9F020E030E0A9010E94B4
:100D500098008091EE029091EF02FC01EE0FFF1FD0
:100D6000EE0FFF1FEE0FFF1FE81BF90B80918A01AA
:100D700090918B01E80FF91FEE0FFF1FEE0FFF1F81
:100D8000EE56FE4F128280918A0190918B0101965E
:100D900090938B0180938A018730910514F4BC01F4
:100DA000BACF8091EE029091EF0201969093EF02FC
:100DB0008093EE0207970CF4A8CF2FEF3FEF40E0AF
:100DC00050E06881F80180810E94980082E0809361
:100DD000860134C3F901EE0FFF1FEE0FFF1FEE0F68
:100DE000FF1FDF01A21BB30B4A0F5B1FFA01EE0FBF
:100DF000FF1FEE0FFF1FEE56FE4F928191110EC0A6
:100E0000F601808360938D0120E030E040EA50E0FD
:100E10000E94980087E08093860110C30E94DA0246
:100E2000882329F00E94F7010E94380407C310921A
:100E3000EF021092EE0210928B0110928A0160E094
:100E400070E08091EE029091EF02FC01EE0FFF1F27
:100E5000EE0FFF1FEE0FFF1FE81BF90BE60FF71F4A
:100E6000EE0FFF1FEE0FFF1FEE56FE4F22812223D3
:100E7000F9F020E030E0A9010E9498008091EE0294
:100E80009091EF02FC01EE0FFF1FEE0FFF1FEE0F20
:100E9000FF1FE81BF90B80918A0190918B01E80FED
:100EA000F91FEE0FFF1FEE0FFF1FEE56FE4F1282CF
:100EB00060918A0170918B016F5F7F4F70938B01FE
:100EC00060938A01673071050CF4BBCF8091EE020C
:100ED0009091EF0201969093EF028093EE020797B4
:100EE0000CF4A9CF2FEF3FEF40E050E06881D8012C
:100EF0008C910E949800F8019081888127E0929F50
:100F0000F0011124E80FF11DEE0FFF1FEE0FFF1F80
:100F1000EE56FE4F23812093910190938503809399
:100F2000860320915802921303C010928E010AC0CA
:100F300090915902891304C081E080938E0102C010
:100F40000E94BC0384E08093860178C2809189016D
:100F5000882309F473C2D8018C9190918503891379
:100F600099C268819091860369130EC0F60180834F
:100F700060938D0120E030E040EA50E00E9498004C
:100F80008BE0809386015AC28093580268816093F7
:100F9000590220E030E0A9010E9498008FEF9FEFF6
:100FA000909357028093560285C290918E019111C1
:100FB00017C02A2D3B2D90919101992311F0282DD6
:100FC000392DF901E957FE4F2081D8019C91289FC6
:100FD000900D112490938F0188818093870316C010
:100FE0002A2D3B2D90919101992311F0282D392D17
:100FF000F901E957FE4F20819881289F900D112417
:1010000090938703F801808180938F0180918F01F5
:101010006091870327E0829FF0011124E60FF11D04
:10102000EE0FFF1FEE0FFF1FEE56FE4F9081911146
:101030001AC08730C0F46730B0F420E830E0A9016E
:101040000E949800E0918F018091870397E0E99FCB
:10105000F0011124E80FF11DEE0FFF1FEE0FFF1F2F
:10106000EE56FE4F72828091560290915702029680
:101070009093570280935602823091050CF495CFDD
:1010800085E080938601DAC180918901882309F483
:10109000D5C1D8018C916881462F50E0282F30E0CF
:1010A000FA01B7E08B9FE00DF11D1124EE0FFF1F39
:1010B000EE0FFF1FEE56FE4F908191110EC0F6010C
:1010C000808360938D0120E030E040EA50E00E9490
:1010D00098008AE080938601B1C1909158028913EB
:1010E000F2C190915902691369C01092EF021092F7
:1010F000EE0210928B0110928A0160E070E0809104
:10110000EE029091EF02DC01AA0FBB1FAA0FBB1FDA
:10111000AA0FBB1FA81BB90BA60FB71FAA0FBB1F97
:10112000AA0FBB1FAE56BE4F12962C912223F9F088
:1011300020E030E0A9010E9498008091EE02909199
:10114000EF02FC01EE0FFF1FEE0FFF1FEE0FFF1F60
:10115000E81BF90B80918A0190918B01E80FF91F30
:10116000EE0FFF1FEE0FFF1FEE56FE4F1282809113
:101170008A0190918B01019690938B0180938A0153
:101180008730910514F4BC01BACF8091EE029091A2
:10119000EF0201969093EF028093EE0207970CF412
:1011A000A8CF2FEF3FEF40E050E06881D8018C914D
:1011B0000E94980084E08093860140C1F901EE0FFF
:1011C000FF1FEE0FFF1FEE0FFF1FDF01A21BB30B70
:1011D0004A0F5B1FFA01EE0FFF1FEE0FFF1FEE56C7
:1011E000FE4F928191110EC0F601808360938D01B4
:1011F00020E030E040EA50E00E94980089E08093CF
:1012000086011CC10E94DA02882329F00E94F7019E
:101210000E94380413C11092EF021092EE02109255
:101220008B0110928A0160E070E08091EE02909153
:10123000EF02FC01EE0FFF1FEE0FFF1FEE0FFF1F6F
:10124000E81BF90BE60FF71FEE0FFF1FEE0FFF1F56
:10125000EE56FE4F22812223F9F020E030E0A90172
:101260000E9498008091EE029091EF02FC01EE0F37
:10127000FF1FEE0FFF1FEE0FFF1FE81BF90B809102
:101280008A0190918B01E80FF91FEE0FFF1FEE0FFF
:10129000FF1FEE56FE4F128260918A0170918B0102
:1012A0006F5F7F4F70938B0160938A016730710588
:1012B0000CF4BBCF8091EE029091EF0201969093D7
:1012C000EF028093EE0207970CF4A9CF2FEF3FEFC8
:1012D00040E050E06881D8018C910E94980081E044
:1012E00080938601ABC080918901882309F4A6C050
:1012F000F8018081D6019C9189130EC0688190917C
:101300008D01691309C020E030E0A9010E94980016
:1013100083E08093860192C00E9438048FC0809140
:101320008901882309F48AC0F8018081688127E057
:10133000829FF0011124E60FF11DEE0FFF1FEE0F4B
:10134000FF1FEE56FE4F9081911103C00E9438049A
:1013500075C0D6019C91891371C090918D0169135C
:101360006DC02FEF3FEF40E050E00E94980083E017
:101370008093860163C080918901882309F45EC04F
:10138000F8018081D6019C9189130EC068819091EB
:101390008D01691309C020E030E0A9010E94980086
:1013A00085E0809386014AC00E94380447C080913E
:1013B0008901882309F442C0F8018081688127E00F
:1013C000829FF0011124E60FF11DEE0FFF1FEE0FBB
:1013D000FF1FEE56FE4F9081911103C00E9438040A
:1013E0002DC0D6019C91891329C090918D0169135C
:1013F00025C02FEF3FEF40E050E00E94980085E0CD
:10140000809386011BC0809189018823B9F0F8017F
:101410008081D6019C9189130FC0688190918D01C4
:1014200069130AC02FEF3FEF40E050E00E949800A0
:1014300084E08093860102C00E94380461E370E07A
:101440008BE592E00E945F0080918901882309F476
:101450004DCABFE7E8E3F1E0B150E040F040E1F70A
:1014600000C0000043CAF901EE0FFF1FEE0FFF1F7F
:10147000EE0FFF1FDF01A21BB30B4A0F5B1FFA0128
:10148000EE0FFF1FEE0FFF1FEE56FE4F92819111E0
:10149000C5CCB6CC8093580268816093590220E095
:1014A00030E0A9010E9498008FEF9FEF90935702C0
:1014B000809356028FEFAA24A394B12C812C912CF7
:1014C0007724739472CDF901EE0FFF1FEE0FFF1F0B
:1014D000EE0FFF1FDF01A21BB30B4A0F5B1FFA01C8
:1014E000EE0FFF1FEE0FFF1FEE56FE4F9281911180
:1014F00089CE7ACE089597FB072E16F4009407D074
:1015000077FD09D00E94950A07FC05D03EF490951E
:1015100081959F4F0895709561957F4F0895EE0FC7
:10152000FF1F0590F491E02D0994AA1BBB1B51E10C
:1015300007C0AA1FBB1FA617B70710F0A61BB70B43
:10154000881F991F5A95A9F780959095BC01CD01E8
:1015500008958F929F92AF92BF92CF92DF92EF92B7
:10156000FF92CF93DF93EC01688179818A819B811F
:10157000611571058105910521F464E279ED8BE532
:1015800097E02DE133EF41E050E00E94070B490165
:101590005A019B01AC01A7EAB1E40E94260B6B0142
:1015A0007C01ACEEB4EFA50194010E94340BC60E91
:1015B000D71EE81EF91EF7FE06C081E0C81AD10842
:1015C000E10880E8F80AC882D982EA82FB82C60173
:1015D0009F77DF91CF91FF90EF90DF90CF90BF90FA
:1015E000AF909F908F9008950E94A90A089580E07F
:1015F00091E00E94A90A0895A0E0B0E08093000164
:1016000090930101A0930201B09303010895052E68
:1016100097FB1EF400940E941E0B57FD07D00E94FA
:10162000390B07FC03D04EF40C941E0B50954095DB
:10163000309521953F4F4F4F5F4F0895909580957E
:10164000709561957F4F8F4F9F4F08950E945B0B60
:10165000A59F900DB49F900DA49F800D911D112406
:101660000895B7FF0C94260B0E94260B821B930B48
:101670000895A1E21A2EAA1BBB1BFD010DC0AA1FD3
:10168000BB1FEE1FFF1FA217B307E407F50720F0EB
:10169000A21BB30BE40BF50B661F771F881F991F66
:1016A0001A9469F760957095809590959B01AC01AF
:1016B000BD01CF010895A29FB001B39FC001A39FB8
:1016C000700D811D1124911DB29F700D811D11247B
:0816D000911D0895F894FFCF6D
:1016D8000100000000000000000000000100000000
:1016E80000000000000000000000000000000100F1
:1016F80000000100000000000000000000000000E1
:1017080000000000010000000000000000000000D0
:1017180000000000000001000000010000000000BF
:1017280000000000000000000000000001000000B0
:101738000000000000001B001A001C00190018001F
:101748001D001E00090008001F00100011001200F3
:0217580013007C
:00000001FF
